:020000040800F2
:10000000785500205D0200083D280008E11E000828
:100010003928000861090008393200080000000092
:10002000000000000000000000000000912F000808
:10003000250A000800000000A12B00087530000808
:1000400077020008770200087702000877020008AC
:10005000770200087702000877020008770200089C
:10006000770200087702000877020008770200088C
:10007000770200087702000877020008770200087C
:10008000770200087702000877020008770200086C
:10009000770200087702000877020008770200085C
:1000A000770200087702000877020008770200084C
:1000B000770200087702000877020008770200083C
:1000C000770200087702000877020008770200082C
:1000D000770200087702000877020008770200081C
:1000E000770200087702000877020008770200080C
:1000F00077020008770200087702000877020008FC
:1001000077020008770200087702000877020008EB
:1001100077020008770200087702000877020008DB
:1001200077020008770200087702000877020008CB
:1001300077020008770200087702000877020008BB
:1001400077020008770200087702000877020008AB
:10015000770200087702000877020008770200089B
:10016000770200087702000877020008770200088B
:1001700077020008770200087702000800000000FC
:10018000770200087702000877020008770200086B
:10019000770200087702000877020008770200085B
:1001A00077020008770200087702000800F002F8E2
:1001B00000F044F80AA090E8000C82448344AAF1BD
:1001C0000107DA4501D100F039F8AFF2090EBAE8BB
:1001D0000F0013F0010F18BFFB1A43F0010318477B
:1001E0000069000020690000103A24BF78C878C177
:1001F000FAD8520724BF30C830C144BF04680C602D
:10020000704700000023002400250026103A28BF74
:1002100078C1FBD8520728BF30C148BF0B60704778
:10022000642900F0FB80782900F0348100207047B9
:100230001FB506F04AF91FBD10B510BD00F056FB02
:100240001146FFF7F5FF02F0F9FF00F074FB03B46D
:10025000FFF7F2FF03BC00F07BFB0000094880477A
:1002600009480047FEE7FEE7FEE7FEE7FEE7FEE798
:10027000FEE7FEE7FEE7FEE704480549054A064BB0
:100280007047000039310008AD010008784F0020A8
:1002900078550020785100207851002053EA020C54
:1002A00000F069802DE9F04B4FF00006002B1FBFD6
:1002B000B3FA83F503FA05F424FA05F65E4012BF9B
:1002C0001643B2FA82F502FA05F4C5F120051EBF05
:1002D00022FA05FC44EA0C04203556EA044C4FEAA5
:1002E000144418BF641C4FF000084FF000099042FE
:1002F00071EB030C39D3002919BFB1FA81F701FA68
:1003000007F6B0FA80F700FA07F6C7F120071EBF1C
:1003100020FA07FC46EA0C062037B6FBF4FCA7EBF4
:100320000507103F07F01F0BCBF120062CFA06F64D
:100330000CFA0BFB44BFB3460026202FA4BF5E4639
:100340004FF0000B5BEA060C08BF4FF0010B19EBF6
:100350000B0948EB0608ABFB027C06FB02CC0BFB4F
:1003600003CCC01B71EB0C01C1E70B4602464146B2
:100370004846BDE8F08B13B5084318BF4FF0FF3077
:100380000146AFF30080BDE81C4070470FB41CB5B8
:100390000C0007AA009007D04142A14202D320449A
:1003A000401E01E04FF0FF30074B7B44694601904F
:1003B000069800F04EFA0020002C01D00099087039
:1003C0001CBC5DF814FB0000CB04000070B50446B3
:1003D00085690068C10601D5302600E02026C007E7
:1003E00007D070BDD4E9012130469047206A401CF7
:1003F00020626D1EF6D570BD70B504468569007823
:10040000C00707D170BDD4E9012120209047206AA0
:10041000401C20626D1EF6D570BD00002DE9F04134
:100420000646002410687529314616A510D0AFF392
:100430000080002802DA404213A507E031688A07ED
:1004400001D512A502E0490704D511A5012401E058
:10045000AFF3008000210A2206F1240709E0B0FB77
:10046000F2FCB0FBF2F302FB1C003030785418466B
:10047000491C0028F3D123462A463046BDE8F04106
:1004800000F088B9000000002D0000002B000000E3
:100490002000000070B504460D4621461068AFF3F9
:1004A00000802188090502D50F4A7A4402E00E4AED
:1004B0007A440E32002104F1240305E000F00F0617
:1004C0000009965D5E54491C0028F7D1207800236E
:1004D000000704D5702D02D009B102231132204645
:1004E000BDE8704000F056B9366000002DE9F05FBD
:1004F000894604464FF0000ADFF824B1FB44C0F8F7
:1005000020A02046E168884700287DD0252806D015
:10051000D4E901219047206A401C2062F1E70025C0
:100520005F462046E16888472028064607DB312ED3
:1005300005D2B81910F8200C08B10543F1E7A80757
:1005400001D525F00405C4F81CA00027C4F818A0A4
:100550002A2E09D0304605F0B1FF38B304EB8708E6
:10056000303EC8F8186019E059F8041B204604EB27
:1005700087029161E1688847012F064618D1E0693A
:10058000002820DA25F020051DE0D8F8180000EB3F
:10059000800006EB40003038C8F818002046E168BB
:1005A0008847064605F08AFF0028EED1012F0AD0C1
:1005B0002E2E08D12046E16888477F1C0646022F70
:1005C00045F02005C4DBA069002803DA404245F06D
:1005D0000105A061E80701D025F01005A6B1A6F13C
:1005E0004100192802D8203645F400654A463146B4
:1005F000204625604D46FFF713FE60B1012807D065
:10060000ED1D25F0070000E007E000F1080978E79C
:1006100005F1040975E730467AE7206ABDE8F09FE6
:100620000C60000010B5431C02E010F8011B71B112
:100630008107FAD14FF0013202C88C1A8C4314EAB8
:10064000C211F9D0C01A0A0603D0C01E10BDC01ACC
:1006500010BD0A0401D0801E10BD0902FCD0401E4E
:1006600010BD032A40F2308010F0030C00F015801A
:1006700011F8013BBCF1020F624498BF11F801CBA5
:1006800000F8013B38BF11F8013BA2F1040298BF0A
:1006900000F801CB38BF00F8013B11F0030300F074
:1006A000F380083AC0F0088051F8043B083A51F84A
:1006B00004CBA0E80810F5E7121D5CBF51F8043B1D
:1006C00040F8043BAFF30080D20724BF11F8013B90
:1006D00011F801CB48BF11F8012B24BF00F8013BF2
:1006E00000F801CB48BF00F8012B704702F0FF0370
:1006F00043EA032242EA024200F024B84FF000022B
:100700000429C0F0128010F0030C00F01B80CCF123
:10071000040CBCF1020F18BF00F8012BA8BF20F891
:10072000022BA1EB0C0100F00DB85FEAC17C24BFE5
:1007300000F8012B00F8012B48BF00F8012B70478F
:100740004FF0000200B5134694469646203922BF6A
:10075000A0E80C50A0E80C50B1F12001BFF4F7AFB5
:10076000090728BFA0E80C5048BF0CC05DF804EB97
:10077000890028BF40F8042B08BF704748BF20F805
:10078000022B11F0804F18BF00F8012B7047704703
:10079000704770472DE9F0470D469946924604464A
:1007A00000F124080168880604D5E06921F01001F1
:1007B000216000E00120A84201DD471B00E0002786
:1007C000A1697A1902EB0900081AA0612078C00615
:1007D00002D42046FFF7FAFD002608E0D4E9012103
:1007E0001AF806009047206A401C761C20624E458D
:1007F000F4DB2078C0060AD52046FFF7E7FD06E0C7
:10080000D4E9012130209047206A401C2062381E24
:10081000A7F10107F4DC07E0D4E9012118F805008D
:100820009047206A401C2062281EA5F10105F3DCD8
:100830002046FFF7E1FD2078000602D50220BDE842
:10084000F0870120FBE7000001694A1C026108787B
:10085000704700B58FB0CDE9013100210591054900
:100860007944CDE9031011466846FFF73FFE0FB00B
:1008700000BD0000E5FFFFFFD1E900239A4202D24C
:10088000531C0B601070704710B5203AC0F00B80FD
:10089000B1E81850A0E81850B1E81850A0E8185076
:1008A000203ABFF4F5AF5FEA027C24BFB1E81850EC
:1008B000A0E8185044BF18C918C0BDE810405FEA4E
:1008C000827C24BF51F8043B40F8043B08BF7047CA
:1008D000D20728BF31F8023B48BF11F8012B28BFCF
:1008E00020F8023B48BF00F8012B7047754600F026
:1008F0002BF8AE4605006946534620F007008546B2
:1009000018B020B5FFF7B8FCBDE820404FF0000656
:100910004FF000074FF000084FF0000BAC46ACE87A
:10092000C009ACE8C009ACE8C009ACE8C00921F0D6
:1009300007018D46704710B50446AFF3008020468E
:10094000BDE81040FFF783BC00487047100000204E
:1009500001491820ABBEFEE72600020070470000E8
:10096000FEE700002DE9F04784B040F20048C4F2F1
:1009700002088A46064640464FF4807100224FF036
:10098000000900F039F9802040F2CC0540EA460029
:10099000C2F200058DF8090064240DF1090102AAD4
:1009A00028460123009401F077F80DF10B010DF1B9
:1009B0000A02284601238DF80B90009401F06CF890
:1009C0009DF80A7040464FF48071012200F014F93E
:1009D00040464FF48071002227EA0A0700F00CF924
:1009E0007E2000EA46008DF80D000DF10D0103AAEE
:1009F00028460123009401F04FF80DF10F010DF18D
:100A00000E02284601238DF80F70009401F044F87F
:100A100040464FF48071012200F0EEF804B0BDE8CA
:100A2000F08700007047000072B600BFFEE70000CC
:100A3000B0B5044600F0E6F8054640F20400C2F204
:100A400000000078611C18BF044400BF00F0DAF811
:100A5000401BA042FAD3B0BD2DE9F04F82B000F1A7
:100A60003E4242F2004502F1FF77C4F202050A223B
:100A70004FEAB726A84208BF0922092E38BF4FEA1D
:100A8000B7224FF0010A002400274FF0000900921E
:100A900009E000BF09F101090237B9F1100F04F1B3
:100AA000040400F0A6800A680AFA09FC12EA0C089D
:100AB000F0D0D1F804B00BF0030AAAF10102012A28
:100AC00012D882680323CE6803FA07FE22EA0E02D8
:100AD000BE40324382604268CBF3001622EA0C0229
:100AE00006FA09F632434260BAF1030F1DD0C2681C
:100AF00003238D6803FA07F6B24305FA07F632437B
:100B0000BAF1020FC26010D16FF0030202EA59027B
:100B10000244D2F820C004F01C050F230E69AB403C
:100B20002CEA0303AE4033431362026803234E688A
:100B3000BB409A4306F00303BB401A4316F4403F00
:100B40004FF0010A0260A5D0002243F6440301924F
:100B5000C4F202031A6843F6004E42F480421A605F
:100B60001A68C4F2010E02F480420192019A29F03F
:100B700003024FF6084C7244CFF6FF7C52F80C305B
:100B800004F00C060F25B540AB43009D05FA06F6B0
:100B9000334342F80C30DEF808204B6842EA08067E
:100BA00043F60C4CDD0258BF22EA0806CEF8086076
:100BB000C4F2010CDCF800209D0242EA080658BF8E
:100BC00022EA0806CCF80060DEF804209D0342EA21
:100BD000080658BF22EA0806CEF80460DEF80020B6
:100BE000DB0342EA080658BF22EA0806CEF8006096
:100BF00050E702B0BDE8F08F002A08BF0904816108
:100C00007047000044F29C70C2F200000068704718
:100C100090F83D20202A1CBF02207047242280F833
:100C20003D200268136823F001031360536A23F028
:100C300010035362536A19435162116841F0010174
:100C40001160202180F83D100020704790F83D2071
:100C5000202A1CBF02207047242280F83D20026811
:100C600089B2136823F001031360D2F824C04FF651
:100C7000F07303EA0C0319435162116841F001015A
:100C80001160202180F83D1000207047F0B581B040
:100C9000B0B3044690F83D0028B9002084F83C0029
:100CA000204600F0B1FA242084F83D002068016855
:100CB00021F001010160016841F400410160016817
:100CC00021F40041016000F037FC48F28041C0F29D
:100CD0001E0140F60012656888424FF00001C0F224
:100CE0003D0248F2A16C4FF0000338BF0121904251
:100CF000C0F2010C38BF0123654538BF0B4613B164
:100D0000012001B0F0BD4DF68361C4F21B31A0FBA0
:100D1000011221684FEA924E4B684FF4967623F009
:100D20003F0343EA92434B6044F6D3530F6A0EFBF2
:100D300006F6C1F26203A6FB033627F03F03B709AC
:100D4000654538BF970C7A1C1A430A62CA6948F293
:100D5000A0674CF6FF73C0F20107BD4222EA030C04
:100D60000AD801386A00B0FBF2F001306FF31F308F
:100D7000042898BF04202BE0A368A0F1010E9BB1CA
:100D800019206843BEFBF0F00422013062F31F30EB
:100D9000000512D09BB119206843BEFBF0F004227D
:100DA000013062F31F3011E005EB4500BEFBF0F0AF
:100DB00001306FF31F300005ECD1012008E005EB96
:100DC0004500BEFBF0F001306FF31F3040F40040EF
:100DD00040EA0C00C8610868D4E9072320F0C0008D
:100DE000104318430860886848F2FF3204F10C078A
:100DF00090438CCF18431043A6698860C86820F0E0
:100E0000FF0038433043C860086840F001000860C4
:100E100000202021206484F83D10206384F83E00E7
:100E200001B0F0BD2DE9F04782B099469246884660
:100E30000446FFF7E7FE94F83D1020290BD1054644
:100E40002068806910F002000AD194F83C00012863
:100E50002BD1022600E00226304602B0BDE8F08722
:100E6000012686EA500706E02068806910F002003B
:100E700086EA5007E9D0FFF7C5FE401B1A28F3D3D6
:100E8000206880698007EFD500202021206384F846
:100E90003D1084F83E00216C41F020012164F907E7
:100EA00084F83C00D1D10226D6E70121206884F8DD
:100EB0003C100168C90703D1016841F001010160DC
:100EC000016821F400610160212184F83D101021A6
:100ED00084F83E1000212164C4F824A0A4F82A90CC
:100EE000618D21850021CFF6FF71E162E16A11F584
:100EF000803F18BF012925D1016841F4807101604C
:100F00004069DDF8289010F0010038D180F001062A
:100F100009F101070BE000BF20684169C90717D03C
:100F20002068406910F0010080F0010627D1002FF1
:100F3000F6D0FFF767FEB9F1000FEDD0401B484532
:100F4000EED9E9E70829D7D0216B1229D4D0D7E709
:100F500000212022216384F83D2084F83E10226C79
:100F600042F020022264F20784F83C1007D00068A7
:100F70000126C00544BF4FF4007020646CE720696F
:100F8000B0F5804F01D1FE213AE0062000EAD811E9
:100F90002068F03101614169090730D44169490590
:100FA00017D409F1010600BF66B1FFF72BFEB9F1B6
:100FB000000F02D0401B484504D920684069000753
:100FC00040F1128120684169090718D44169490537
:100FD000EAD50168012641F4007101606FF4806177
:100FE000416100202021206384F83D1084F83E00F8
:100FF000216C41F00401216484F83C002CE7FF21BE
:10100000206801EA08010161416989072FD441691B
:10101000490516D409F1010666B1FFF7F3FDB9F1F0
:10102000000F02D0401B484504D920684069800762
:1010300040F1CB8020684169890718D4416949058E
:10104000EAD50168012641F4007101606FF4806106
:10105000416100202021206384F83D1084F83E0087
:10106000216C41F00401216484F83C00F4E6002680
:101070000196206841690191806901900198208D55
:10108000002859D009F1010704E000BF2068406939
:10109000000668D5206850F8141F09060DD40168B1
:1010A000490556D4002FF5D0FFF7ACFDB9F1000F7C
:1010B000ECD0401B4845EDD9E8E7D4F824E022689D
:1010C000704610F8013B13616062608D01386085E5
:1010D000B4F828C01046ACF10103238550F8141F62
:1010E00049070DD519040BD09EF8011011610EF1BE
:1010F00002016162618D01396185ACF102012185D6
:10110000016806E020684069400745D5206850F82E
:10111000141F49070DD4016849051FD4002FF5D0CD
:10112000FFF770FDB9F1000FECD0401B4845EDD939
:10113000E8E7208D0028ADD12068016841F40071F6
:101140000160202084F83D0084F83E6084F83C6013
:1011500082E66FF480610160042005E06FF4806135
:101160000160042019E0202000212022216384F85E
:101170003D2084F83E10226C1043206484F83C101B
:10118000206C042806D120680126016841F4007112
:10119000016061E601265FE6202000212022216314
:1011A00084F83D2084F83E10226C1043206484F8BB
:1011B0003C10206C042806D120680126016841F407
:1011C0000071016048E6012646E6002020212063E8
:1011D00084F83D1084F83E00216C012641F0200186
:1011E000216484F83C0037E600202021206384F845
:1011F0003D1084F83E00216C012641F0200121645D
:1012000084F83C0028E60000B0B586B045F6000141
:101210000068C4F20001002488420594CDE903442B
:101220000294019401D006B0B0BD43F6300500949D
:10123000C4F202052868122240F0200028602868C5
:1012400000F02000009000980320019004900420FA
:10125000059001F5DE3001A9CDE90224FFF7FCFB82
:101260000094286940F480002861286900F4800017
:101270000090009806B0B0BD40F2040044F29C71AA
:10128000C2F20000C2F2000100780A68104408604F
:101290007047000080B543F60040C4F202000168C8
:1012A00041F400710160016841F4806101600168EE
:1012B00041F480710160032000F07EF80F2000F0FF
:1012C00005F800F02BF8002080BD0000B0B540F21A
:1012D0000402C2F2000240F200011278C2F20001E0
:1012E0004FF47A730968B3FBF2F20446B1FBF2F1F2
:1012F000084600F0FDFC0F2C4FF001050CD858B942
:101300004FF0FF3021460022002500F029F840F27E
:101310000800C2F2000004602846B0BD82B0002080
:1013200043F640010190C4F202014A6842F480424F
:101330004A604A6802F480420192019A009008686B
:10134000002240F08050086008680F2100F08050B3
:10135000009000986FF0010002B000F001B80000AA
:1013600010B54EF60C5CCEF2000CDCF80030C3F386
:10137000022E8EF00704042C28BF0424BEF10303C0
:101380004FF0FF3E0EFA04F438BF0023A14399400A
:101390000EFA03F39A43114300F1604200F00F0389
:1013A000090102F56442043B6344002848BF03F18D
:1013B0000C02117010BD00004EF60C51CEF200016F
:1013C0000A684FF6FF031A4060F30A2242F0806079
:1013D00040F0FD70086070472DE9F041002800F0F2
:1013E0008B8043F60808C4F202080446D8F8F803D4
:1013F0000D4600F00F00884207D288F8F853D8F85D
:10140000F80300F00F00A84276D12068810717D5B5
:10141000410705D5D8F8001041F4E051C8F8001094
:10142000010705D5D8F8001041F46041C8F8001054
:10143000D8F80010A26821F0F0011143C8F800109C
:10144000C0073FD1D8F8F80300F00F00A84207D931
:1014500088F8F853D8F8F80300F00F00A8424BD1F1
:101460002068410707D5D8F80010E26821F4E05160
:101470001143C8F80010000708D5D8F8000021690A
:1014800020F4604040EAC100C8F8000000F07CF899
:10149000D8F8001046F21D52C1F30311C0F6000245
:1014A000515C40F2000220FA01F140F20800C2F261
:1014B00000000068C2F200021160FFF707FF002081
:1014C000BDE8F0816068811E022907D258F8081C27
:1014D00089015CBF0120BDE8F08110E0012807D13F
:1014E00058F8081C89035CBF0120BDE8F08106E0C4
:1014F00058F8081C890702D40120BDE8F081D8F80B
:10150000001021F003010843C8F80000FFF77AFB40
:10151000064641F2883700BFD8F80000616800F045
:101520000C00B0EB810F8DD0FFF76CFB801BB84235
:10153000F2D90320BDE8F08140F2000043F6080133
:10154000C2F20000C4F202010068096846F22D529E
:10155000C1F38221C0F60002515CC8407047000010
:1015600040F2000043F60801C2F20000C4F202019A
:101570000068096846F22D52C1F34231C0F60002FC
:10158000515CC8407047000010B543F60404C4F233
:101590000204606800F00C0142F200400829C0F229
:1015A000F40007D0042918BF10BD41F20020C0F29A
:1015B0007A0010BD216801F03F02216823684902CA
:1015C000C3F3881105D4A1FB00010023FEF766FEDA
:1015D00006E041F20020C0F27A004843B0FBF2F08E
:1015E00021680222C1F3014102EB4101B0FBF1F09D
:1015F00010BD00002DE9F04182B0002800F0A1806C
:101600000446007843F60006C007C4F2020643D041
:10161000B06800F00C00042805D1306880033BD589
:101620006068C8BB8DE0B06800F00C00082802D1EB
:1016300070684002F1D46568B5F5A02F0AD0B5F501
:10164000803F0BD0306820F480303060306820F468
:10165000802006E0306840F480203060306840F43C
:1016600080303060FFF7CEFA002D054611D000BF64
:101670003068800310D4FFF7C5FA401B6428F7D9FF
:1016800020E100BFFFF7BEFA401B64284FF00300C3
:1016900054D830688003F5D4207880071AD5B06814
:1016A00010F00C0F09D0B06800F00C00082840F0D2
:1016B00088807068400200F184803068800702D51D
:1016C000E06801283DD13068216920F0F80040EA47
:1016D000C10030602078000737D4207840074AD412
:1016E000A56955B3B06800F00C00082840F09C8054
:1016F000012D26D07068E16900F480028A4220D171
:10170000216A00F03F028A421BD147F6C071626A2B
:101710000140B1EB821F14D1A16A4FF6FF73C903D8
:10172000994300F44032A1F580318A4209D1E16A3F
:1017300000F07060B0EB016F03D1002002B0BDE893
:10174000F081012002B0BDE8F0816069002840F21C
:101750000000C4F2472056D00121C0F8801EFFF7D8
:1017600051FA0546706F8007B7D4FFF74BFA401B5C
:101770000228F7D9A6E0306C10F080580AD100207A
:101780000190306C40F080503064306C00F080503C
:101790000190019847F20007C4F200073868C005BD
:1017A00024D4386840F480703860FFF72BFA05467F
:1017B0003868C0051AD4FFF725FA401B0228F7D96C
:1017C00080E0E068002851D00020C4F247200121C9
:1017D0000160FFF717FA0546306880073FF573AFE1
:1017E000FFF710FA401B0228F6D96BE0A568052D1B
:1017F00050D0012D52D0306F20F001003067306F93
:1018000020F004004DE00021C0F8801EFFF7FAF937
:10181000054600BF706F80077FF55FAFFFF7F2F9F5
:10182000401B0228F6D94DE00027C4F247270020CC
:101830003866FFF7E7F9022D05460BD130688001C5
:1018400058D5FFF7DFF9401B02284FF00300F5D908
:1018500074E700BF306880017FF56FAFFFF7D2F902
:10186000401B02284FF00300F4D967E70020C4F2C0
:10187000472000210160FFF7C5F905463068800761
:101880007FF528AFFFF7BEF9401B02284FF0030099
:10189000F4D953E7306F40F004003067306F40F008
:1018A00001003067FFF7AEF9002D054641F2883799
:1018B00014D000BF306F800713D4FFF7A3F9401B8B
:1018C000B842F7D9032002B0BDE8F081FFF79AF9DA
:1018D000401BB8424FF003003FF630AF306F800737
:1018E000F4D4B8F1000F7FF4FBAE306C20F08050E0
:1018F0003064F5E604F11C052FCD084340EA821060
:10190000D9034FF6FF729143A1F5803140EA05609B
:101910000843706001203866FFF774F9044600BF81
:10192000306880013FF509AFFFF76CF9001B022812
:101930004FF00300F4D901E770B538B10446406AAE
:1019400030B10020206104F1140007E0012070BDD7
:101950006068B0F5827F03D004F11C0000210160B3
:101960000026A66294F8510020B9204684F8506001
:1019700000F03CF8022084F8510094E80F0001F4D4
:101980008271056802F4044225F0400505601144A7
:1019900003F400622369114403F0020263691144F5
:1019A00003F00102A369E569114403F400721144D4
:1019B00005F03802256A114405F08002A56A11433A
:1019C00005F4005211430160626A042101EA1341E7
:1019D00002F0100211444160C16921F40061C1614B
:1019E0000120666584F85100304670BD2DE9F04352
:1019F00087B043F600050068C4F200050026A8423F
:101A00000696CDE904660396029602D007B0BDE8BB
:101A1000F08343F630000196C4F20200016902AC83
:101A200041F48041016101694FF0020801F48041F5
:101A300001910199019601684FF0030941F00401F9
:101A400001600168052701F00401019101990196E7
:101A5000016841F0080101600068214600F00800BB
:101A6000019001980C20029005F5E830CDE903863D
:101A7000CDF814900697FEF7EFFF0820CDE9020895
:101A800005F5EA302146CDE904690697FEF7E4FF43
:101A900007B0BDE8F08300002DE9F04383B01E4697
:101AA00015460F460446FFF7ADF894F851108146ED
:101AB00001290DD06068B0F5827F15D1A06800289B
:101AC0004FF0020008BF042902D003B0BDE8F08344
:101AD000002F4FF0010018BF002DF6D0002EF4D0DB
:101AE00094F85000012803D1022003B0BDE8F08330
:101AF000012084F8500094F85100002104281CBFF4
:101B0000052084F851006165A563E687A6872763F1
:101B1000E6862068A686216461640168490603D4CC
:101B2000016841F0400101606168731EE268B1FA2A
:101B300081F1B3FA83F3DDF8288049095B09B2F536
:101B4000006F41EA030138D131B137F8021BC1609F
:101B50002763E08E0138E086012608F1010500BF09
:101B6000E08E10B9E08F00286CD02068816889076A
:101B70000CD5E18E51B1012E08D1216B002631F830
:101B8000022BC2602163E18E0139E1868168C907B9
:101B90000AD0E18F41B1C068A16B012621F8020B88
:101BA000A163E08F0138E087FFF72CF8002DD7D034
:101BB000A0EB09004045D3D33AE039B1397801733D
:101BC000206B01302063E08E0138E086012608F1A9
:101BD000010500BFE08E08B9E08F98B320688168E6
:101BE00089070DD5E18E59B1012E09D1216B00264F
:101BF00009780173206B01302063E08E0138E086A4
:101C000020688168C9070BD0E18F49B1C068A16B1A
:101C100001260870A06B0130A063E08F0138E087D7
:101C2000FEF7F0FF002DD5D0A0EB09004045D1D341
:101C3000012084F85100002084F85000032003B0F4
:101C4000BDE8F0832046022101224346CDF80090F2
:101C500001F02CF960B1606D40F02000606520203B
:101C60006065002084F85000012003B0BDE8F083D7
:101C700040F20000C2F20000006849F68171C1F232
:101C80005E61A0FB0101480D4FF47A714843029058
:101C90006068B0F5827F0AD1204680210022434649
:101CA000CDF8009001F002F90028D4D108E00298A4
:101CB00030B1029801380290206880680006F6D49E
:101CC000A06838B9002001902068C168019180683F
:101CD00001900198012084F85100002084F8500000
:101CE000606D002818BF012003B0BDE8F08300003C
:101CF000411E0020B0EB116F1CBF012070474EF257
:101D00001002CEF2000251604EF62351CEF20001D5
:101D1000F0230B700721906011607047002804BF0A
:101D20000120704710B5044690F8410028B9002002
:101D300084F84000204600F021F8242084F8410077
:101D40002068C16821F40051C160204601F0FEF90D
:101D50002068016921F490410161416921F02A0163
:101D60004161C16841F40051C160002020216064DC
:101D700084F8411084F84210606310BD80B586B0CD
:101D800044F600010068C4F2000100228842059276
:101D9000CDE903220292019201D006B080BD43F644
:101DA00030000092C4F20200036943F4802303610F
:101DB000036903F480230093009B0092036843F0BF
:101DC00008030360006800F00800009000984FF4DA
:101DD000407001900220CDE9020203200490072008
:101DE000059001F5E23001A9FEF736FE06B080BD90
:101DF0002DE9F04381B0044690F8410020281CD121
:101E0000884600294FF0010066D01646002A63D0AC
:101E10000020606421201D4684F84100FEF7F2FE98
:101E2000A684E684A1680646B1F5805F01D12069E9
:101E300038B1C1464FF0000805E0022001B0BDE80E
:101E4000F0834FF00009E08C48B36F1C0CE0B9F14F
:101E5000000F1BD019F8010B21684860E08C013895
:101E6000E084E08CD8B100BF206800680006EED4A2
:101E7000002FF9D0FEF7C6FE01464FF0030045B330
:101E8000891BA94225D82068C068EDE738F8020B05
:101E900021686FF35F2048604FF00009DEE720689B
:101EA0000068400614D46F1C04E000BF206800687E
:101EB00040060DD4002FF9D0FEF7A4FE01464FF0E6
:101EC000030035B1891BA94203D82068C068EDE73B
:101ED0000020202184F8411001B0BDE8F08300000B
:101EE000FEE700002DE9F04184B040F20045C4F265
:101EF0000205044628464FF4807100224FF0000886
:101F0000FEF77AFE40F2CC061A20C2F200068DF8E7
:101F10000D0064270DF10D0103AA3046012300973F
:101F2000FFF7BAFD0DF10F010DF10E02304601234E
:101F30008DF80F800097FFF7AFFD28464FF48071B2
:101F40000122FEF759FE42F29300208002AF0C20DE
:101F5000214602222346009700F098F910B104B000
:101F6000BDE8F08100214FF0FF3200BFA3185B787D
:101F70000132032A81EA0301F8D12279914218BF84
:101F8000022004B0BDE8F081F0B583B040F2004417
:101F9000C4F2020420464FF480710122FEF72CFEA9
:101FA00020464FF400710122FEF726FE20464FF432
:101FB000807100220027FEF71FFE40F2CC050220B0
:101FC000C2F200058DF80B0064260DF10B010DF136
:101FD0000A02284601230096FFF75EFD0F208DF8C8
:101FE0000B000DF10B010DF10A02284601230096AA
:101FF000FFF752FD20464FF480710122FEF7FCFDF1
:1020000020464FF480710022FEF7F6FD54208DF833
:102010000B000DF10B010DF10A0228460123009679
:10202000FFF73AFD8D208DF80B000DF10B010DF13E
:102030000A02284601230096FFF72EFD20464FF4A2
:1020400080710122FEF7D8FD20464FF480710022F6
:10205000FEF7D2FD56208DF80B000DF10B010DF1AE
:102060000A02284601230096FFF716FD3E208DF850
:102070000B000DF10B010DF10A0228460123009619
:10208000FFF70AFD20464FF480710122FEF7B4FDF0
:1020900020464FF480710022FEF7AEFD5A208DF8E5
:1020A0000B000DF10B010DF10A02284601230096E9
:1020B000FFF7F2FC1E208DF80B000DF10B010DF166
:1020C0000A02284601230096FFF7E6FC20464FF45B
:1020D00080710122FEF790FD20464FF480710022AE
:1020E000FEF78AFD58208DF80B000DF10B010DF164
:1020F0000A02284601230096FFF7CEFC0DF10B01E2
:102100000DF10A02284601238DF80B700096FFF7A7
:10211000C3FC20464FF480710122FEF76DFD20467E
:102120004FF480710022FEF767FD2A208DF80B0026
:102130000DF10B010DF10A02284601230096FFF76D
:10214000ABFC40208DF80B000DF10B010DF10A02E4
:10215000284601230096FFF79FFC20464FF480712C
:102160000122FEF749FD20464FF480710022FEF760
:1021700043FD22208DF80B000DF10B010DF10A0239
:10218000284601230096FFF787FC3D208DF80B00C1
:102190000DF10B010DF10A02284601230096FFF70D
:1021A0007BFC20464FF480710122FEF725FD20467E
:1021B0004FF480710022FEF71FFDA8208DF80B0060
:1021C0000DF10B010DF10A02284601230096FFF7DD
:1021D00063FC0DF10B010DF10A02284601238DF875
:1021E0000B700096FFF758FC20464FF480710122D7
:1021F000FEF702FD1420032100F0DCFE03B0F0BD69
:102200002DE9F04184B040F20048C4F202080C46C7
:10221000054640464FF480710022FEF7EDFC40F287
:10222000CC071A20C2F200078DF80D0064260DF1CC
:102230000D0103AA384601230096FFF72DFC072065
:102240008DF80F000DF10F010DF10E02384601233C
:102250000096FFF721FC40464FF480710122FEF703
:10226000CBFC02AF0C2021460122234625700097AB
:1022700000F00CF802991029014618BF022100282D
:1022800018BF0221084604B0BDE8F0812DE9F04FE7
:1022900087B017460C2888460293049005D00E2874
:1022A00007D111200590122006E0312005907720FB
:1022B00002E001200590002040F20046C4F2020630
:1022C000039000F1800530464FF4807100224FF0FA
:1022D0000009FEF791FC40F2CC0A0420C2F2000A89
:1022E0008DF81B0064240DF11B010DF11A025046FC
:1022F00001230094FFF7D0FB0DF11B010DF11A0231
:10230000504601238DF81B500094FFF7C5FB304663
:102310004FF480710122FEF76FFC04208021FEF74C
:1023200021FB0A20802100F045FE30464FF48071E9
:102330000022FEF761FC02208DF81B000DF11B014D
:102340000DF11A02504601230094FFF7A5FB0DF191
:102350001B010DF11A02504601238DF81B900094C9
:10236000FFF79AFB30464FF480710122FEF744FCE0
:102370007FB340F2CC0AA8F10105C2F2000A0DF1C8
:102380001B090DF11A0800BF15F801BF30464FF4C4
:10239000807100226424FEF72FFC12208DF81B00B0
:1023A00050464946424601230094FFF775FB6424DA
:1023B00050464946424601238DF81BB00094FFF772
:1023C0006BFB30464FF480710122FEF715FC013F94
:1023D000DAD130464FF480710022FEF70DFC40F256
:1023E000CC070220C2F200078DF81B000DF11B0183
:1023F0000DF11A02384601230094FFF74DFB049DAE
:102400000DF11B010DF11A02384601238DF81B5006
:102410000094FFF741FB30464FF480710122FEF734
:10242000EBFB0C2D03D10D20802100F0C3FD4FF6F6
:10243000300540F2CC09CFF6FF754FF088084FF019
:10244000640AC2F200090DF11B0B0DF11A0400BF62
:1024500030464FF480710022FEF7CEFB48465946C5
:10246000224601238DF81B80CDF800A0FFF714FB56
:1024700000208DF81B004846594622460123CDF81E
:1024800000A0FFF709FB9DF81A7030464FF48071E9
:102490000122FEF7B1FB013537D205983842D7D07B
:1024A0000D208021FEF75EFA30464FF48071002245
:1024B0004FF00008FEF7A0FB40F2CC048C20C2F2E3
:1024C00000048DF81B0064250DF11B010DF11A02AB
:1024D000204601230095FFF7DFFA0DF11B010DF1F6
:1024E0001A02204601238DF81B800095FFF7D4FACD
:1024F0009DF81A4030464FF480710122FEF77CFBB4
:1025000014F01B0F0AD0022504E00D208021FEF7F5
:1025100029FA0225284607B0BDE8F08F03980499F0
:1025200038400C2900F00105F4D130464FF4807199
:1025300000224FF00008FEF75FFB40F2CC0494202D
:10254000C2F200048DF81B004FF0640A0DF11B016C
:102550000DF11A0220460123CDF800A0FFF79CFAE6
:102560000DF11B010DF11A02204601238DF81B808D
:10257000CDF800A0FFF790FA9DF81A7030464FF49E
:1025800080710122FEF738FB30464FF48071002243
:10259000FEF732FB98208DF81B000DF11B010DF1A9
:1025A0001A0220460123CDF800A0FFF775FA0DF1BD
:1025B0001B010DF11A02204601238DF81B80CDF876
:1025C00000A0FFF769FA9DF81A4030464FF4807179
:1025D0000122FEF711FB14F0070040EAC700A0F14A
:1025E000080008BFF800102F3C4628BF1024002F19
:1025F000109908BF0124002C08608BD0029840F28B
:10260000CC0BA0F10108C2F2000B0DF11B070DF17C
:102610001A09059530464FF480710022FEF7ECFA56
:1026200092208DF81B00584639464A460123CDF8C2
:1026300000A0FFF731FA00208DF81B0058463946FC
:102640004A460123CDF800A0FFF726FA9DF81A505C
:1026500030464FF480710122FEF7CEFA013C08F8B3
:10266000015FD7D1059D55E7F0B587B0002643F649
:1026700030000696CDE90466CDE902660196C4F203
:102680000200016840F2004441F02001016001684D
:10269000C4F2020401F02001019101990196016840
:1026A000002241F080010160016801F08001019188
:1026B00001990196016841F004010160016801F08F
:1026C0000401019101990196016841F00201016044
:1026D000016801F00201019101990196016841F040
:1026E00008010160016801F008010191019901965A
:1026F000016841F00101016000684FF4864100F07B
:102700000100019001982046FEF776FA4FF48040D0
:1027100002AD0290012720462946CDE903760596B1
:10272000FEF79AF94FF44070CDE9020702200590B8
:10273000204629460496FEF78FF907B0F0BD000049
:1027400080B540F2780045F60001C2F20000C4F204
:10275000000141F6802200234FF4804CC0F20602B3
:1027600080E80E00C0E9033CC0E90533C0E9073347
:10277000FEF78CFA002818BFFEF756F940F27800F1
:10278000C2F200000021FEF743FA002818BFFEF74E
:102790004BF940F27800C2F200000021FEF756FA31
:1027A000002808BF80BDBDE88040FEF73DB90000AD
:1027B00080B540F2CC0043F60001C2F20000C4F242
:1027C00000014FF48272002380E80E0000F1140132
:1027D0004FF4007C4FF0080E81E808500A21C0E950
:1027E0000333C0E90833C0E90A31FFF7A5F8002830
:1027F00008BF80BDBDE88040FEF716B980B540F245
:10280000241044F60001C2F20000C4F200010023CB
:102810004FF00C0C4FF4E13280E80E00C0E90333B6
:10282000C0E905C3C361FFF779FA002808BF80BD7E
:10283000BDE88040FEF7F8B8FEE70000FEE70000C4
:1028400090B000F0CFF800F0C7F80446F8B942485D
:102850000DF1100E039040A0D0E90565071DD0E9E9
:1028600007C08ECFCDE9086503ADCDE90AC0284683
:102870008EE88E00FDF7D6FE82B240F22410C2F23E
:10288000000029466423FFF7B3FAFEF7CDF820468F
:1028900001F0F0FA204601F0F9FA204601F01EFCA2
:1028A00046F2EC51C0F60001204601F02FFC40F248
:1028B000740840F2004B46F23F55C2F200080DF199
:1028C00030090DF10C0AC4F2020BC0F600052FE02E
:1028D0009DF831009DF832109DF830309DF833702E
:1028E000CDE900015046202130A20297FDF74EFDB0
:1028F0000127534634A6204600211C2201F06EFB1E
:10290000204600212E22334601F068FB58464FF442
:1029100080413A46FEF770F9204600210A222B46F4
:1029200001F05CFB204601F0D9FB642000F09CFC28
:10293000D8F80000494600224FF0FF33002700F08E
:10294000D5FC204601F096FA9DF83D000128BFD045
:1029500010A30AA6CFE700BF4661696C65642074C6
:102960006F20696E697469616C697A65204F4C45A6
:102970004420646973706C61790D0A00537461744A
:1029800075733A20556E7375636365737366756C02
:10299000000000005461672F436172643A204E6F5B
:1029A0007420446574656374656400005461672F26
:1029B000436172643A202530325825303258253030
:1029C00032582530325800005374617475733A20C0
:1029D000537563636573730040F2E060C2F20000F8
:1029E0007047000010B540F2E064C2F2000446F205
:1029F000E05144F6253244F64973C0F60001C0F6B2
:102A00000002C0F60003204601F022FC3C2084F8BE
:102A10002400204602F02EF820460021BDE8104098
:102A200002F034B870B594B003200E21002200F0FB
:102A3000A1FC40F27401C2F20001086020BB3748DB
:102A4000099036A000F1040E9EE81E50D0E907560A
:102A50000A91D0E909010D9409ACCDE91160204635
:102A60000B920C93CDF838C01391CDE90FE5FDF72B
:102A7000D9FD82B240F22410C2F200002146642344
:102A8000FFF7B6F9FDF7D0FF2F480DF1040E0090C7
:102A90002DA0061DD0E90554D0E907C04ECECDE9E2
:102AA00007C042F641008EE84E00C0F600006A46BC
:102AB0000021CDE9055400F0F5FC40F26C11C2F2A2
:102AC0000001086008B114B070BD2848099027A023
:102AD000D0E90554061DD0E907CE90F824004ECE6B
:102AE000CDE90E5409AC8DF8480020460A910B92AE
:102AF0000C930D96CDF840C0CDF844E0FDF792FD63
:102B000082B240F22410C2F2000021466423FFF793
:102B10006FF9FDF789FF14B070BD00BF4661696CA5
:102B2000656420746F2063726561746520646973E5
:102B3000706C617920524335323220696E666F20A5
:102B400071756575650D0A003565000800000000A7
:102B5000000000000000000000000000000800006D
:102B60001800000000000000000000004661696CD1
:102B7000656420746F20637265617465204F4C45F5
:102B80004420646973706C6179207461736B0D0A01
:102B90000000000000000000000000000000000035
:102BA000EFF30980BFF36F8F154B1A681EF0100FFB
:102BB00008BF20ED108A20E9F04F10602DE90900D0
:102BC0004FF0500080F31188BFF34F8FBFF36F8F2A
:102BD00002F074FC4FF0000080F31188BDE809009A
:102BE00019680868B0E8F04F1EF0100F08BFB0EC8D
:102BF000108A80F30988BFF36F8F704700BF00BF52
:102C000064020020B4B0FFF7BFF96CA0416840F245
:102C100024190E91816840F274070D91C1684FF03C
:102C200000080C9101690DF13C0B0B914169C2F256
:102C300000090A91816930AE0991C169C2F20007A9
:102C40000891016A90F82400079106902CE000BFDB
:102C50005A488DF8CD800F900E988DF8CA8010904C
:102C60000D9811900C9812900B9813900A9814904C
:102C700009981590089816900798179006988DF85F
:102C800060005846FDF7CEFC82B2484659466423A0
:102C9000FFF7AEF8386831460022002300F0BAFB97
:102CA0004FF4FA6000F0E0FA26200DF1BE01ADF815
:102CB000CC80CDF8C880CDE93088ADF8BE80FFF774
:102CC0009FFA9DF8BE109DF8BF40054600915846FA
:102CD00080212EA22B460194FDF758FB5846FDF7A4
:102CE000A1FC82B2484659466423FFF781F830467A
:102CF000FFF7F8F88246B0FA80F04009BDF8BE1040
:102D000084009DF8C0009DF8C220ADF8CB109DF85E
:102D1000C1109DF8C3308DE80F0046F2935258461B
:102D20008021C0F6000253468DF8CA400494FDF796
:102D30002DFB5846FDF776FC82B24846594664237F
:102D4000FFF756F855EA0A0082D19DF8C1009DF8B8
:102D5000C3209DF8C0309DF8C2109DF8CB509DF85F
:102D6000CCC08DE8270046F2555234463E46012736
:102D700058468021C0F600028DF8CD7037462646B1
:102D8000CDF810C0FDF702FB7BE700BF4D46524374
:102D90003532325F52657175657374207374617476
:102DA00075733A2025642C20746167547970653AF4
:102DB0002025303258253032580D0A004E6F2076CB
:102DC000616C696420636172642F746167206F7243
:102DD00020554944206E6F7420666F756E640D0A2D
:102DE00000000000B0B592B01F480AAF09901EA0C5
:102DF00000F1040ED0E907509EE81E50CDE91050B6
:102E000042F6054087E81E50C0F6000009AA0021DE
:102E100000F048FB40F2DC61C2F20001086008B13A
:102E200012B0B0BD19480DF1080E019017A0D0E9FD
:102E3000054C051D808B2ECD069401ACADF820000D
:102E400020468EE82E00CDF81CC0FDF7EBFB82B2C9
:102E500040F22410C2F2000021466423FEF7C8FFAE
:102E6000FDF7E2FD12B0B0BDD5650008000000001E
:102E7000000000000000000000000000000800004A
:102E80002000000000000000000000004661696CA6
:102E9000656420746F2063726561746520524335E8
:102EA0003232207461736B0D0A0000002DE9F04787
:102EB00082B00A9C984615460E468146FDF7A2FE52
:102EC000201A00EB0804FDF79DFE40F20001C2F25B
:102ED00000010968C1F3CB3161430191D9F80010B9
:102EE00089683140891BB1FA81F14909A94203D1AE
:102EF000002002B0BDE8F087824608F101070CE02F
:102F0000019801380190D9F8000080683040801B9A
:102F1000B0FA80F04009A842EAD0002FF3D0FDF7C4
:102F200071FEA0EB0A00A04204D201980028E7D16C
:102F30000024E8E7D9E900014268B1F5827F22F078
:102F4000E00242600BD1D9F80810B1F5004F02D071
:102F5000B1F5806F03D1016821F040010160D9F81B
:102F60002810B1F5005F07D1016821F4005101601C
:102F7000016841F400510160012089F851000020EE
:102F800089F85000032002B0BDE8F087000000007F
:102F9000074B19680868B0E8F04F80F30988BFF361
:102FA0006F8F4FF0000080F31188704700BF00BFA3
:102FB000640200202DE9F04784B040F20048C4F2DA
:102FC00002088A46064640464FF4807100224FF0C0
:102FD0000009FDF711FE802040F2CC0540EA4600D2
:102FE000C2F200058DF8090064240DF1090102AA5E
:102FF000284601230094FEF74FFD0DF10B010DF162
:103000000A02284601238DF80B900094FEF744FD38
:103010009DF80A7040464FF480710122FDF7ECFDE7
:1030200040464FF48071002247EA0A07FDF7E4FDAD
:103030007E2000EA46008DF80D000DF10D0103AA77
:10304000284601230094FEF727FD0DF10F010DF135
:103050000E02284601238DF80F700094FEF71CFD28
:1030600040464FF480710122FDF7C6FD04B0BDE873
:10307000F087000080B5FEF7FFF802F0E5FF0128B9
:1030800008BF80BDBDE8804002F000BB70B592B0C3
:1030900006AC20463021FDF753FB002543F64000E7
:1030A0000595CDE90355CDE901550095C4F202001F
:1030B0000168022641F080510160006800F08050F4
:1030C0000090009847F200000095C4F200000168EB
:1030D00041F440410160006800F4404000900098D5
:1030E000012006904FF4803007904FF480000D903F
:1030F00004200E90A820CDE90F060720119020464D
:103100000C96FEF777FA10B172B600BFFEE70F20FB
:10311000CDE901064FF4A05004904FF48050059083
:1031200001A805210395FEF757F910B172B600BF4B
:10313000FEE712B070BD00004EF68850CEF20000DF
:10314000016841F4700101607047000010B5044649
:103150000068D4E902C22369016921F44051114396
:103160000161626943EA0C01E3691143C2681943D2
:1031700049F20C639A431143C1604169A26921F489
:10318000407141F20043114340F48062C4F20103F4
:103190009A42416102D1FEF7E3F901E0FEF7CCF972
:1031A000E16963681922B1F5004FA0FB020121D14A
:1031B0005A00DB0FFDF772F848F21F51C5F2EB1110
:1031C000A0FB01235A094FF69C73C0F6FF7303F16D
:1031D000805302FB0300322303EBC000A0FB01017C
:1031E0004FF4F87000EA111000EB0210C1F3421125
:1031F00008441DE09A009B0FFDF750F848F21F515C
:10320000C5F2EB11A0FB01235A094FF69C73C0F6DF
:10321000FF7302FB0300322303EB0010A0FB01014C
:10322000F02000EA511000EB0210C1F343110844F2
:103230002168886010BD0000FEE70000FEF72AF854
:10324000FFF724FFFFF710FAFFF7B2FAFFF7D6FAFD
:10325000FFF776FA00F018F8FFF7E4FBFFF7C2FD7E
:1032600000F026F8FEE70000EFF3058100291CBFFF
:103270006FF005007047002804BF0020704780B53C
:1032800002F01CF8002080BDEFF3058000281CBF71
:103290006FF00500704740F27000C2F20000016854
:1032A000002911BF4FF0FF3001210160002070475D
:1032B00010B5EFF3058000281CBF6FF0050010BDAE
:1032C00040F27000C2F20000016801291CBF4FF0FB
:1032D000FF3010BD4EF61F51CEF2000100240C70DD
:1032E0000221016002F090F8204610BD10B582B0B6
:1032F0001C46B0FA80F3B1FA81F25B095209EFF390
:10330000058CBCF1000F42EA030219D0002C18BF53
:103310000124224315D10022019201AA02F006FDE8
:1033200001281AD10198A8B14EF60450CEF200003F
:103330004FF080510160BFF34F8FBFF36F8F09E0F3
:103340001AB16FF0030002B010BD224602F01AFC61
:10335000012806D1002002B010BD6FF0020002B0BB
:1033600010BD6FF00100002C08BF6FF0020002B02A
:1033700010BD0000B0B582B0144600294FF0000522
:10338000EFF3058218BF002802D1284602B0B0BD75
:10339000002AFAD19CB1A568D5B1E268502A16D3AB
:1033A0002269A2B1D4F814C001FB00F200239445B5
:1033B0004FF0000228BF012210D24DB10EE00123D0
:1033C00000226AB9E3B1002202F078F90EE01DB9DB
:1033D000E2680AB92269C2B100220023002AF1D0B2
:1033E000A36822690025009502F0ACF9054655B1A5
:1033F000002C14BF21680021284601F027FFC4E7F4
:103400000025002DF4D10025BFE76269B2FA82F2EF
:103410005309D5E7B0B582B01C46B0FA80F3B1FAD3
:1034200081F5EFF305825B096D09002A43EA050285
:1034300007D0002C18BF0124224306D06FF00305EB
:103440002CE0CAB16FF0030528E00022019201AA26
:10345000002302F0EFFA01281CD10198E8B14EF6E2
:103460000450CEF200004FF080510160BFF34F8F47
:10347000BFF36F8F002511E022460023002502F0E4
:10348000CFF901280AD06FF00105002C08BF6FF0BA
:10349000020503E06FF0020500E00025284602B0B7
:1034A000B0BD000070B584B08E46002100280391A5
:1034B000EFF305814DD000294BD122B39369002B46
:1034C00008BF1823382B1BD81179C90718D15569A3
:1034D000946811684FEA950C002D08BF4FF0800CDE
:1034E00044B1D6685C2E04D31669002E18BF002D97
:1034F00020D10CB9D468C4B10025002455B91DE011
:10350000002004B070BD0124002118234FF0800C6E
:1035100000259DB1946812690294CDE9003262469B
:10352000734602F01DFD039013E01469B4FA84F4AD
:103530006409EDE700240125002DEBD14CB103AC6B
:1035400000931FFA8CF27346019402F09BFC012851
:1035500002D1039804B070BD0020E4E7F0B581B05B
:103560000D4644F6687140F26426C2F20001C2F2D0
:1035700000060F6831680446081D01F001FD601C5B
:103580000BD155B13068011D44F64070C2F2000005
:1035900001B0BDE8F04001F04FBD3068E41944606F
:1035A0000BD340F27420C2F200000068316804318D
:1035B00001B0BDE8F04001F021BD40F26C20C2F244
:1035C000000000683168043101F018FD44F6CC6059
:1035D000C2F2000001688C4238BF046001B0F0BD47
:1035E0002DE9F047044601F03FFD44F2A070C2F21D
:1035F0000000016840F2642701310160C2F2000757
:10360000396844F6347A40F27C26C2F2000AC2F2EB
:10361000000651B1DAF8000000283ED13868E16AAE
:10362000C06A884298BF3C6037E03C60006801286F
:1036300033D10025701901F0D1FC1435B5F58C6F2C
:10364000F8D144F69868C2F20008404601F0C6FC82
:1036500044F6AC69C2F20009484601F0BFFC44F6EA
:10366000E060C2F2000001F0B9FC44F65470C2F20E
:10367000000001F0B3FC44F64070C2F2000001F01B
:10368000ADFC40F26C20C2F20000C0F8008040F2B5
:103690007420C2F20000C0F8009044F2AC70C2F294
:1036A0000000016801310160616444F2B071C2F24E
:1036B0000001E06A0A68904288BF086000EB800061
:1036C00006EB8000211D01F0B7FC01F0F1FCDAF8F7
:1036D000000088B13868E16AC06A884228BFBDE846
:1036E000F0874EF60450CEF200004FF0805101609A
:1036F000BFF34F8FBFF36F8FBDE8F08770B582B017
:1037000001F0B2FC44F66C76C2F20006306850BBA1
:1037100044F66C64C2F20004204601F05FFC44F6FB
:103720008065C2F20005284601F058FC40F268208E
:10373000C2F20000046040F27820C2F2000040F2C1
:10374000701240F2102305600025C2F20002C2F29E
:1037500000030A201021009501F0F4FF306010B141
:1037600003A101F073FD02B0BDE8704001F0A0BC00
:10377000546D72510000000044F2A47540F27C2A9E
:103780004EF6045844F6547744F2A076C2F200058F
:10379000C2F2000ACEF200084FF08059C2F20007D0
:1037A000C2F2000603E000BF204601F099FC286841
:1037B000C8B101F059FCF868C468201D01F0E0FBB5
:1037C00030680138306028680138286001F070FCEA
:1037D00094F859000228EAD00128E5D070B9206B8E
:1037E00001F07EFCE0E7DAF800000228DFD3C8F839
:1037F0000090BFF34F8FBFF36F8FD8E74FF05000AB
:1038000080F31188BFF36F8FBFF34F8FFEE7000087
:1038100008480068006880F308884FF0000080F3D3
:10382000148862B661B6BFF34F8FBFF36F8F00DFAE
:1038300000BF000008ED00E02DE9F04F85B08246A2
:1038400002F016FC40F26029C2F20009D9F800101B
:103850000546884249D240F26824C2F2000420683A
:103860000168002943D044F66C7BC2F2000B08E0EB
:103870007860206831463F6101F0C0FB2068016834
:10388000A9B3C068C768D0F800803E1D304601F07B
:1038900077FB396A3846884797F828004007EDD506
:1038A000B86940444045E3D88FB3DBF8000078B1F5
:1038B0000020CDE90108039702F0C6FBDBF8000009
:1038C00001A90022002301F0ABFF0028D6D102E0BD
:1038D00000200028D2D14FF0500080F31188BFF3B0
:1038E0006F8FBFF34F8F00BFFEE7002007E040F26D
:1038F0007821C2F200010A68086001202260CAF83B
:1039000000002846C9F8005005B0BDE8F08F4FF020
:10391000500080F31188BFF36F8FBFF34F8F00BF4C
:10392000FEE7000081B00020009040F20C00C2F2DF
:10393000000000684FF0500181F31188BFF36F8FD2
:10394000BFF34F8F013001D0FEE700BF0098002881
:10395000FCD001B0704700008AB040F2682A40F203
:10396000782944F66C78C2F2000A02ACC2F200096F
:10397000C2F2000801AE00BFDAF8000007681FB10C
:10398000C068D0F800B001E04FF0000B01F08EFDF0
:103990002046FFF751FF029911B102F0B9FC7DE01A
:1039A0000546AFB15D4513D302F0B2FCDAF8000072
:1039B000C068C76807F10409484601F0E1FA97F8C2
:1039C0002800410707D400F0FE0087F8280012E025
:1039D000B7B100221AE0B9693F6101EB0B00A842C0
:1039E000786029D95D4501D2584533D2DAF8000014
:1039F000494601F003FB40F27829C2F2000945E094
:103A0000D9F800000068B0FA80F04209D8F8000048
:103A1000ABEB050101F02EFC02F07AFC00283DD151
:103A20004EF60450CEF200004FF080510160BFF31B
:103A30004F8FBFF36F8F31E0A5EB0B00884209D2A7
:103A400040F27822C2F2000210684946914601F025
:103A5000D5FA1BE0002F00F0C680D8F8000068B14E
:103A60000020CDE9060B089702F0EEFAD8F8000026
:103A700006A90022002301F0D3FE00E0002040F25E
:103A80007829C2F20009002800F0B780396A384668
:103A9000884703E0D9F8000001F0B0FAD8F8000038
:103AA0002146002202F06EF800283FF465AF02982C
:103AB000B0F1FF3F03DCDDE9032005999047029850
:103AC0000028EBD4049F786910B1381D01F058FA32
:103AD0003046FFF7B1FE02990929DFD8DFE801F08F
:103AE0000505053B3E5405053B3E97F82810039A13
:103AF000BD6941F0010187F82810AB18394641F83B
:103B0000043F83423F6104D9904238D2934203D2AA
:103B100035E0801AA842BDD3396A3846884797F8FD
:103B200028004007BAD5002F53D0D8F80000C0B302
:103B30000398B969089708440021CDE9061002F0FE
:103B400083FAD8F8000006A90022002301F068FEDD
:103B50000028A3D129E097F828001DE097F8281045
:103B600041F00102039987F82820B96139B30A1896
:103B7000394641F8042F82423F617FF68BAFDAF875
:103B8000000001F03BFA89E797F82800810703D489
:103B9000384601F0A5FA81E700F0FE0087F828001A
:103BA0007CE7002000287FF479AF4FF0500080F3CD
:103BB0001188BFF36F8FBFF34F8F00BFFEE74FF049
:103BC000500080F31188BFF36F8FBFF34F8F00BF9A
:103BD000FEE74FF0500080F31188BFF36F8FBFF303
:103BE0004F8F00BFFEE74FF0500080F31188BFF306
:103BF0006F8FBFF34F8F00BFFEE74FF0500080F391
:103C00001188BFF36F8FBFF34F8F00BFFEE7000037
:103C1000F0B581B0044601F027FA94F94560012E11
:103C20000FDB04F1240500BF286850B1284602F0DC
:103C300027FB002818BF01F0A3FB70B2013E01284A
:103C4000F2DCFF2684F8456001F032FA01F00CFA4C
:103C500094F94470012F0EDB04F11005286850B16F
:103C6000284602F00DFB002818BF01F089FB78B24E
:103C7000013F0128F2DC84F8446001B0BDE8F04067
:103C800001F016BAF0B581B0044601F00FFC40F225
:103C90007021C2F20001086844F69467C2F200077E
:103CA00080BB40F69632C2F20002D61D26F007060F
:103CB00012F00703A2EB060518BF324644F6387629
:103CC000C2F200060020C6E900204FF47056002B17
:103CD00018BF05F57056931923F00703A3F10806E2
:103CE0000E6043E90200B01AC2E9006044F6C862FF
:103CF000C2F20002106044F6C062C2F2000210601C
:103D0000012038703878002818BF4FF0004020425A
:103D10000DD0002402F0FCFA600712D04FF05000E2
:103D200080F31188BFF36F8FBFF34F8FFEE75CB155
:103D300060071ABF24F0070000F1100304F1080324
:103D400003E0204601B0F0BD0023002B4FF000043B
:103D5000E0D044F6C06CC2F2000CDCF800008342F4
:103D6000D8D844F63874C2F20004266875689D42BB
:103D70000FD232684AB100BF5568344616469D429C
:103D800007D23268002AF7D103E044F63874C2F251
:103D9000000408688642BCD0D4F800E03068EA1A13
:103DA000112A20602FD3F418600708D04FF050007C
:103DB00080F31188BFF36F8FBFF34F8FFEE744F698
:103DC0003875C2F200056260736000BF2B462D6833
:103DD000A542FBD35A689818A04203D160681C46DC
:103DE000104458606268A018A84201D0294606E035
:103DF00009688D4203D0D5E9001010446060A342E9
:103E0000216018BF1C6044F6C8617068DCF80020AF
:103E1000C2F200010B68121A9A42CCF8002038BF97
:103E20000A603878716800284FF0000018BF41F030
:103E30000041306044F6D460C2F2000002680EF126
:103E400008047160511C016064E70000034643F6FA
:103E50002510C0F600004FF0807C21F0010103E93D
:103E600003106FF0020043F8240CA3F1440043F860
:103E7000202C704780B5016890F83820097C406B91
:103E80005143C900FCF73AFC80BD000010B5044660
:103E900000F0ACF8204600F0FFF80028FAD12046E8
:103EA0000021BDE8104000F023B900002DE9F043E7
:103EB00081B0002B00F08E8090F88C70002F00F005
:103EC0008980089C022B05D3032C3ED0022C01D103
:103ED000C91A013114F0010C3CD1B0F84C6097B212
:103EE000B74277D3B0F84E60B74273D2B0F848E02B
:103EF000B0F84A4013FA81F61FFA81F97546B7B255
:103F0000A14538BF0D46B74208BF0D461FFA85F8D8
:103F10003546A14538BF651EB74208BF3D4600275C
:103F2000AEB20025A04538BF0127764588BF0125E0
:103F30002F40012F45D1F04588BFC646A64238BF65
:103F40003446A4EB0E0371463BE0D21A013214F062
:103F5000010CC2D0B0F848608FB2B7423AD3B0F883
:103F60004A60B74236D2B0F84CE0B0F84E4013FA8F
:103F700082F61FFA82F97546B7B2A14538BF1546D9
:103F8000B74208BF15461FFA85F83546A14538BF28
:103F9000651EB74208BF3D460027AEB20025A045CA
:103FA00038BF0127764588BF01252F40012F08D152
:103FB000F04588BFC646A64238BF3446A4EB0E0380
:103FC00072463FB1076B89B2BF6892B29BB2CDF81F
:103FD00000C0B84701B0BDE8F083000044F6D52C1E
:103FE000C0F6000CC0F804C000F090B910B504464B
:103FF00090F8930040B1206894F83820017C606B01
:104000005143C900FCF77AFB20460021BDE810406F
:1040100000F06EB810B5B0F84E40DDF808C0B0F84A
:104020004CE094420BD962454FF000024FF000047F
:1040300088BF0122E64538BF012422430AE06245D9
:104040004FF000024FF0000488BF0122E64538BF60
:1040500001242240002A04BF002010BDB0F84A20ED
:10406000B0F848008A420BD9002299424FF0000173
:1040700088BF0121984238BF012241EA020010BDE9
:10408000002299424FF0000188BF0121984238BFB9
:10409000012201EA020010BDB0B5044600F048FC60
:1040A00094F8392094F83800216802444B7CD5B24A
:1040B0009D420ED294F893202AB1097C4143606B53
:1040C000C900FCF71BFB2046294600F011F801202F
:1040D000B0BD204600F0D4FC0020B0BD10B50446B1
:1040E00000F026FC2046BDE8104000F0C9BC0000EE
:1040F00010B50446006B84F83910026820469047DA
:10410000206B41682046BDE810400847B0B5044622
:10411000806D88426CD0A16508780D4684F87400E3
:10412000487884F87500887884F87600C87884F830
:104130007700087984F87800487984F879008879DC
:1041400084F87A00C87984F87B00087A84F87C00C7
:10415000487A84F87D00887A84F87E00C87A84F8EA
:104160007F00087B84F88000487B84F88100887B8E
:1041700084F88200C87B84F88300087C84F884007B
:104180000846112100F078FBA4F886002846132188
:1041900000F072FBA4F888002846152100F06CFBA3
:1041A000A4F88A0025B394F88D1094F9812094F92D
:1041B0008200002984F88E2084F88F0008BFB0BDEB
:1041C000012908D194F983108A42B8BF84F88E106F
:1041D00094F9841008E094F97E3094F980100B442F
:1041E0009342C8BF84F88E308842C8BF84F88F10CD
:1041F000B0BD000044F2E931C0F60001C16570476E
:10420000B0B50446049884F8382040F20112A4F8AE
:10421000922002680025C4E90B302046A56584F889
:10422000395084F86D5084F8915084F88D50616352
:1042300090470020CFF6FF70216B206560654968CC
:10424000204688472046FFF7D5FF84F87050B0BD60
:10425000B0B582B09C4613460C4644F6D15144F6A4
:104260007942C0F60001C0F600020546CDF800C054
:1042700000F012FC0DF1070000F052FB9DF8072042
:1042800044F681030146C0F6000328460094FFF778
:10429000B7FF02B0B0BD0000022B07D0012B08D041
:1042A000002B14BF1044084480B27047401A80B2FB
:1042B0007047801A80B27047022B07D0012B08D0BC
:1042C000002B14BF401A104480B27047801A80B28D
:1042D0007047084480B2704710B582B0B0F83EE035
:1042E000DDF810C0C46AA2EB0E0292B2CDF800C095
:1042F000A04702B010BD000080B582B0DDF810C04C
:10430000CDF800C0FFF7E8FF02B080BD2DE9F04F07
:1043100081B01F4692460D4606464FF6FF7800F0E4
:104320002BFE7268397830469047404554D0A8F14A
:1043300001017C1C4FF000091FFA81FB08E000BF5F
:104340008144726814F8011B30469047404545D0BF
:1043500087B25F45F5D096F870205046032A29466B
:104360001AD8DFE802F002080D14F16D30468847D4
:104370005044294610E0F16D30468847291A0AE07A
:10438000F16D30468847AAEB0000294604E0F16D44
:104390003046884741195046A6F86410A6F86600D2
:1043A0003046394600F022FA20B10146304600F08E
:1043B0001DF800E0002096F870100329C0D8DFE84F
:1043C00001F005070902AAEB000AB9E70544B7E7BF
:1043D0008244B5E72D1AB3E74FF000091FFA89F0C0
:1043E00001B0BDE8F08F0000002070472DE9F04FCC
:1043F0008BB08346016600208BF86C009BF8780038
:104400000A780646082822BF0131CBF86010A0F1D7
:1044100008064FF0FF3101FA00F09BF8793022EAEC
:104420000000DBF860508BF86C608BF86A009A191A
:104430002F78D4B2082CF4B227FA04F70AD36C1CF4
:10444000CBF86040C6F108066D78F6B205FA06F6BC
:104450003743083A994027EA01039BF892100393E7
:104460008BF86E10B1FA81F149098BF86B308BF83B
:104470006F109BF87A10DBF860308BF86C201E7898
:104480005518D7B2EAB2082A26FA07FC0AD35E1CEE
:10449000CBF86060C7F108075B78FFB2BB404CEA1D
:1044A000030C083D9BF87B30DBF860408BF86C50C8
:1044B0005E192778F2B2082AEAB227FA02F70AD37D
:1044C000C5F10802651CCBF860506578D2B205FAD8
:1044D00002F21743083E4FFA80F99BF87C00DBF8A4
:1044E00060508BF86C60029030442A78C4B2082C7B
:1044F000F4B222FA04F20BD31446C6F108026E1C81
:10450000CBF860606E78D2B206FA02F22243083825
:10451000B9F1010F01928BF86C00C0F256814FF097
:10452000FF304A1E00FA01F1D2B22CEA010100FA72
:1045300002F298405E1E114427EA0002039FF3B284
:10454000012606FA03F33A449A1A9BF87060BBF806
:10455000640057B24DB229463A463346FFF79CFEF7
:104560008046BBF8660029463A463346ABF864807D
:10457000FFF7A2FE032EABF8660009D8DFE806F0CD
:10458000020B141D039908EB090340FA81F11AE0AC
:104590004346014617E0039908F1010349B2A3EB32
:1045A000010800EB09010EE0039908F101034AB28A
:1045B000411CA3EB0908881A05E0039948FA81F326
:1045C000411CA1EB09008FB21FFA88F182B29BB2A5
:1045D00058460097FFF71EFD002800F0F6800020E7
:1045E000ABF8680005E000BF039840B2854280F256
:1045F000E8809BF87600DBF860309BF86C701978E7
:104600003A18D6B2082E21FA07F109D35E1CCBF86E
:104610006060C7F108075B78FFB2BB401943083AF6
:104620009BF87730DBF860508BF86C209F182E7861
:10463000FCB2082CD4B226FA04F60AD36C1CCBF8D0
:104640006040C2F108026D78D2B205FA02F2164358
:10465000083F4FF0FF3202FA00F021EA0000059017
:1046600002FA03F026EA000004908BF86C7003E075
:10467000C0078BF86C10B7D09BF868A09BF86980D6
:10468000059C00BF9BF86D009BF86A10A1EB0A0522
:1046900048BB9BF87090BBF866004FFA8AF64FFA59
:1046A00088F731463A464B46CDF82880FFF704FE9E
:1046B000BBF864108046084631463A464B46FFF741
:1046C000EBFD9BF86F200146E0B2EBB2984238BF99
:1046D00003468BF8922058464246CDF80090FFF7EB
:1046E000E5FBDDF82880E8B2E1B2814206D3641B25
:1046F00008F101084FF0000AC4E700BF049B04EB77
:104700000A018BF868108BF8698000BF9BF86A007B
:104710009BF87060A0EB01090A935FFA83FABBF87B
:1047200066305FFA89F7BBF864004CB24FFA88F53F
:104730000997BA45079338BF5746069121462A463E
:104740003346FFF7A9FD0890079821462A463346CD
:10475000FFF7B2FD9BF86E1002468BF89210089995
:1047600058463B465C460096FFF7A0FB09988245F9
:1047700008D30A9B08F10108A3EB09030021A34613
:10478000C4E700BF06980A99236E084494F86C2089
:1047900084F8680084F869801878511CCFB2A34669
:1047A000082F20FA02F0FFF463AF5F1CCBF86070B3
:1047B000C2F108015B78C9B203FA01F10843D11FC5
:1047C00056E79BF86E008BF89200029A4FF0FF308C
:1047D00000FA02F1019B013AD2B223EA01019040B2
:1047E000084440B20BB0BDE8F08F000070B50C4635
:1047F000816DFF2C01F1170104D8612C2DD3B0F885
:1048000088002EE0B0F88A000E18354628460021B0
:1048100000F032F806442846022100F02DF8A042AC
:1048200005F10405F2D3308840BAB0FA80F14FEABE
:10483000511170B1A0420AD0B078315A4ABAB2FAD6
:1048400082F14FEA511122B1A2420644F4D1F01C88
:10485000FFE7002918BF002070BD412C02D3B0F83B
:1048600086000144487820B10A78A242F9D1881C18
:1048700070BD002070BD0000405A00BA000C7047A7
:104880002DE9F04102F00705012490F8926004FA46
:1048900005F7022EBC4628BF4FF0000CB6F1010E02
:1048A00018BFBE460768DDF818803F7C22F0070677
:1048B000426BB8F1000F07FB06F620D012FA86F221
:1048C00011440DE0428F90F892601144012E98BF80
:1048D000A44618BFA646013B1A0408BFBDE8F081F4
:1048E0000A78013542EA0C0282EA0E0215F0070549
:1048F0000A70E7D04FEA4C0C4FEA4E0EEBE7B0B22D
:1049000008441044013800BF10F8011F013B41EA80
:104910000C0181EA0E011A040170F5D1BDE8F081A5
:10492000014640F274700822C2F200000A7070471B
:104930002DE9F04F81B0834690F8388000689BF8ED
:10494000396090F81190002501274FF6F87A00BFE2
:10495000DBF80000F2B2037CDBF8340005FB03F166
:1049600001EA0A01441858460021009400F06EF84C
:10497000474506D20136F0B20835484507F1010730
:10498000E6D301B0BDE8F08FB0B590F838100568F7
:10499000CB00838795F810C090F8393095F811E076
:1049A0004FEACC0CDA005C18A0F83AC0C287744514
:1049B00088BFAEEB03011944C900A0F84020A0F85D
:1049C000421069694164B0BD70B582B00446216C83
:1049D000B0F84400E164B4F85010B4F85420B4F8CE
:1049E0005230B4F856500026A4F84A002046A4F8E5
:1049F00048600095FFF70EFB20B3B4F84810B4F8F8
:104A000050000122814284F88C2038BFA4F848006D
:104A1000B4F84A10B4F85200814288BFA4F84A00A2
:104A2000B4F84C10B4F85400814238BFA4F84C00DC
:104A3000B4F84E10B4F85600814288BFA4F84E0076
:104A400002B070BD84F88C6002B070BD80B582B0D9
:104A5000DDF810C0D0F808E08DF805108DF80620BC
:104A60008DF804306B460F210122CDF800C0F047CD
:104A700002B080BDD0F808C00A21002200236047A0
:104A8000D0F808C01021002200236047D0F808C0E9
:104A90000A460B210023604710B54FF47F44DDF830
:104AA00008C0A0F82340FF244FF0000E80F82840F3
:104AB00000F10804C0F800E080F826E084E80E5019
:104AC000BDE81040AFF30080D0F808C009210022F3
:104AD0000023604700294FF6FF7008BF70470A297E
:104AE00018BF084670470000D0F810C019210022F6
:104AF0000023604780B582B08DF807100DF10702E2
:104B0000012100F003F802B080BD0000D0F810C011
:104B100013460A4617216047D0F810C0182100221A
:104B200000236047B0B582B0A1F1140E8446BEF1F7
:104B30000C0F4FF0000040D80FF20401DFE80EF038
:104B40003C3D3D0720273D3D3D3D3D3D3C009AB36A
:104B500040F6743CC2F2000C9CF8000040F6753E32
:104B6000591EC2F2000E00BF11F8013F013AC4B253
:104B7000013015060EF80430F6D18CF800001BE069
:104B800040F67430C2F200000021017014E09CF87D
:104B9000240040F67431C2F200010B78410040F26B
:104BA000780040F675324FF0FF35C2F20000C2F2D5
:104BB00000020095FCF736F9012002B0B0BD0000FC
:104BC000D0F80CC01921002200236047D0F80CC097
:104BD0000A46162100236047D0F80CC00A4615216A
:104BE00000236047D0F80CC013460A4617216047DF
:104BF000F0B581B00E4604460DF103050AE000BF92
:104C0000A1F11800022817D2E668204600220023EE
:104C1000B0473E46374617F8011B1729F0DCA1F1D3
:104C20001500022813D27278E768204600238DF819
:104C30000320B8470236EDE7FE2914D172782046EA
:104C400029218DF8032000F063F90236E2E71729E5
:104C500009D1707801218DF8030020462A46FFF71C
:104C6000C1FF0236D6E701B0F0BD0000D0F80CC09D
:104C70001821002200236047F0B581B01546A1F14C
:104C80001402052A69D804461E46DFE802F0031321
:104C90002C31505794F824002A46FF2804BF78206E
:104CA00084F82400D4F810C02046334601B0BDE893
:104CB000F040604740F69536C2F200063078012891
:104CC00002D12046FFF710FF2046FFF725FF2046C0
:104CD0000021FFF70FFF20462946FFF70BFF0120B9
:104CE000307001B0F0BD20462946FFF703FF31E0E8
:104CF00040F69537C2F200073878012802D12046E5
:104D0000FFF7F2FE192D0AD320461821324600F093
:104D100003F9183DE8B2182806F11806F4D8E9B2EC
:104D20002046324600F0F8F80020387012E040F6D5
:104D30009530C2F20000002101700BE040F695357D
:104D4000C2F200052878012802D12046FFF7CCFEE8
:104D500000202870012001B0F0BD002001B0F0BD9E
:104D600010B5D0F814C02821002200230446E047E3
:104D7000D4F80CC02046142100220023E04720462E
:104D80004B21012200F0C4F8206829210279204635
:104D900000F0BEF820464B21002200F0B9F8206850
:104DA00029210279204600F0B3F820464B21012248
:104DB00000F0AEF82068292142792046BDE8104075
:104DC00000F0A6B88A7C016080F8222070470000BD
:104DD000B0B50D46044600F01FF808B10120B0BD83
:104DE000092D0DD00A2D14D12046FFF7B9FF46F644
:104DF0008821C0F600012046FFF7FAFE0120B0BD71
:104E000046F6C821C0F600012046FFF7DBFF01206F
:104E1000B0BD0020B0BD00002DE9F0410B390446C3
:104E200004294FF0000088BFBDE8F0811546DFE897
:104E300001F0035F131F30002046002D07BF46F628
:104E4000BD21C0F6000146F6C221C0F60001FFF701
:104E5000CFFE0120BDE8F081002D4BD046F6812128
:104E6000C0F600012046FFF7C3FE2068C07C4AE080
:104E70002046FFF7FBFE20468121FFF7ADFE2046CE
:104E80002946FFF7A3FE2046FFF79AFE0120BDE862
:104E9000F08120461E46FFF7E9FE707994F8221053
:104EA00001EBC007204640215FFA87F8FFF794FE28
:104EB0004FEA181000F110012046FFF78DFE07F0B1
:104EC0000F012046FFF782FEB07940F0B001204686
:104ED000FFF77CFE30793268C000C1B22046FFF790
:104EE00081FE013D2806F5D12046FFF769FE01202D
:104EF000BDE8F08146F67A21C0F600012046FFF7B2
:104F000077FE2068807C84F822000120BDE8F081D3
:104F1000D0F814C000236047F0B581B017460D46A5
:104F20000646FFF7F9FD30464021FFF7E3FD3469FF
:104F3000304617212A463B46A047304601B0BDE81F
:104F4000F040FFF7D1BD000010B52B290AD02A2967
:104F50000BD029291CBF002010BD1046FBF768FDAF
:104F6000012010BD012000BF10BD01200124FBF76E
:104F70005FFD204610BD0000002180F8261070471C
:104F8000D0E9013201699A60D1F804C08268844591
:104F9000536008BF4A600022026108680138086057
:104FA0000868704744F6B413C2F20003036044F289
:104FB000B470C2F2000008608020106070470000EA
:104FC00044F61063C2F20003036044F61020C2F2FC
:104FD000000008604FF48070106070474FF0FF31A0
:104FE000024642F8081F00214260C0E90322016026
:104FF00070470000002101617047000080B5D1F8C2
:1050000000C01CF1010207D000F108039E465B6856
:105010001A686245FAD901E0D0F810E0DEF8042001
:1050200008614A609160C1F808E0CEF80410016898
:105030000131016080BD0000D0F800C04368086104
:105040009A684B608A609A68996051600CF101011E
:1050500001607047DFF80C00016841F470010160E5
:105060007047000088ED00E04FF0500080F3118899
:10507000BFF36F8FBFF34F8F40F20C00C2F20000FE
:1050800001684A1C026001B170474EF60450CEF22E
:1050900000000068000608BF70474FF0500080F322
:1050A0001188BFF36F8FBFF34F8F00BFFEE7000083
:1050B00040F20C00C2F20000016839B10139016010
:1050C00018BF7047002080F3118870474FF05000E0
:1050D00080F31188BFF36F8FBFF34F8FFEE700009F
:1050E000B0B5002808BFB0BD044644F69460C2F2D3
:1050F0000000007854F8041C002818BF4FF000404E
:1051000008420CD0A4F108052A6892B14FF0500073
:1051100080F31188BFF36F8FBFF34F8FFEE74FF01F
:10512000500080F31188BFF36F8FBFF34F8F00BF24
:10513000FEE721EA000044F8040C00F0B7F944F659
:10514000C061C2F2000154F8040C0A6810440860FF
:1051500044F63871C2F2000108460968A942FBD33F
:1051600042688318AB4204D154F8043C05461A4403
:1051700042606A68AB188B4201D00B460AE040F2ED
:105180007023C2F200031B68994203D0D1E90034B6
:10519000A1186960A8422B6018BF056044F6D8606A
:1051A000C2F20000016801310160BDE8B04001F0C9
:1051B000AFB800004EF21000CEF2000000210160F6
:1051C000816040F20001C2F20001096844F6D35246
:1051D000C1F26202A1FB02124FF0FF3101EB92110A
:1051E0004160072101607047EFF30580102814D358
:1051F0004EF2F031CEF20001405C44F29671C2F200
:1052000000010978884208D24FF0500080F31188DD
:10521000BFF36F8FBFF34F8FFEE74EF60C50CEF209
:10522000000044F298710068C2F20001096800F4BD
:10523000E060884298BF70474FF0500080F31188BB
:10524000BFF36F8FBFF34F8FFEE7000044F6F46C9F
:105250000022C2F2000C00BF5CF8323023B10132F0
:10526000082A08BF7047F7E70CEBC2034CF832106E
:105270005860704770B515460E460446FFF7F4FEB9
:1052800094F84400FF2804BF002084F8440094F8F8
:105290004500FF2804BF002084F84500FFF708FF01
:1052A000A06B28B904F1240031462A4600F08CF89E
:1052B0002046BDE87040FEF7ABBC000070B500288A
:1052C00043D0044644F2A870C2F20000016841B124
:1052D0004FF0500080F31188BFF36F8FBFF34F8FF3
:1052E000FEE7016840F264250131016044F6687010
:1052F000C2F20000C2F20005066828680430FFF719
:105300003FFE2868A419446009D340F27420C2F219
:105310000000006829680431FFF770FE10E040F2D9
:105320006C20C2F20000006829680431FFF766FEB5
:1053300044F6CC60C2F2000001688C4238BF0460C1
:1053400000F0E6FF002818BF70BD4EF60450CEF204
:1053500000004FF080510160BFF34F8FBFF36F8F9C
:1053600070BD000044F6D061C2F20001096801601E
:1053700044F66871C2F2000109684160704700009C
:1053800044F67470C2F20000012101607047000011
:1053900010B570B10C4640F26421C2F200010968F8
:1053A0001831FFF72BFE20460121BDE81040FEF723
:1053B000D5B84FF0500080F31188BFF36F8FBFF363
:1053C0004F8F00BFFEE70000B0B598B10D4640F228
:1053D0006421C2F20001096814461831FFF72CFE5F
:1053E000002C18BF4FF0FF3528462146BDE8B040DD
:1053F000FEF7B4B84FF0500080F31188BFF36F8F01
:10540000BFF34F8FFEE7000010B586B0002405A85B
:1054100004A903AACDE90444FFF7C4FDDDE9032094
:1054200005990023CDE9010143F27970C0F600002F
:105430001CA1009400F094FD44F6C461C2F2000186
:10544000086010B101F000F80446601C20D0012C67
:105450001CD14FF0500080F31188BFF36F8FBFF362
:105460004F8F44F6CC60C2F200004FF0FF31016074
:1054700044F63470C2F200000121016044F6687005
:10548000C2F200000021016000F066F806B010BD15
:105490004FF0500080F31188BFF36F8FBFF34F8F31
:1054A000FEE700BF49444C450000000044F2A870EC
:1054B000C2F20000016801310160704744F2A87037
:1054C000C2F20000006830B144F67470C2F200000D
:1054D00001210160704744F67470C2F2000000219F
:1054E00044F2B07C0160C2F2000CDCF8001040F223
:1054F0007C2201EB8103C2F2000252F8230048B97A
:1055000002EB8300A0F11403D9B153F81409013957
:105510000028F9D001EB810002EB800252F8040F61
:105520004368101D8342136001D1586810601068F1
:1055300040F26422C068C2F200021060CCF8001091
:1055400070474FF0500080F31188BFF36F8FBFF3A7
:105550004F8F00BFFEE70000B0B584B04EF20040B0
:10556000CEF200004CF27021C4F20F11D0F80029E5
:105570004B1C9A4209D14FF0500080F31188BFF3C1
:105580006F8FBFF34F8F00BFFEE7D0F800298A422C
:1055900009D14FF0500080F31188BFF36F8FBFF334
:1055A0004F8F00BFFEE7017844F296720291FF210F
:1055B00001700178C2F200028DF807109DF8071003
:1055C00001F05001117044F29871C2F200010722FB
:1055D0000A609DF90720B2F1FF3F0CDC062200BFF4
:1055E0000A609DF80730013A5B008DF807309DF99D
:1055F0000730002BF4D40A68032A3DD14FF4E0634E
:1056000003EA02220A6002990170D0F8201941F4DD
:105610007001C0F82019D0F8201941F07041C0F88D
:105620002019FFF7C7FD40F20C04C2F20004002568
:105630002560FFF70FFD4EF63470CEF200000168D2
:1056400041F040410160FEF7E3F8FFF737FF0395B3
:1056500020684FF0500181F31188BFF36F8FBFF3C3
:105660004F8F013002D000BFFEE700BF0398002833
:10567000FCD0002004B0B0BD4FF0500080F3118882
:10568000BFF36F8FBFF34F8FFEE7000080B54FF081
:10569000500080F31188BFF36F8FBFF34F8F00F07E
:1056A000EDFC30B14EF60450CEF200004FF08051C8
:1056B0000160002080F3118880BD00002DE9F041D9
:1056C000B0B306464843503014460F46FEF7DAFAA8
:1056D000054650B34FF00008284685F84680002F55
:1056E00018BF50302860C5E90F67FFF7BDFC286878
:1056F000D5E90F12C5F8388002FB0103013901FB1F
:105700000201C5E90103FF20E96085F8440085F83E
:10571000450005F11000FFF761FC05F12400FFF7DB
:105720005DFCFFF7C5FC85F84C402846BDE8F081DC
:105730004FF0500080F31188BFF36F8FBFF34F8F8E
:10574000FEE7000070B582B068B11C46ABB1F1B99C
:10575000EAB14FF0500080F31188BFF36F8FBFF3B1
:105760004F8F00BFFEE74FF0500080F31188BFF36A
:105770006F8FBFF34F8F00BFFEE74FF0500080F3F5
:105780001188BFF36F8FBFF34F8F00BFFEE751B19A
:105790004AB94FF0500080F31188BFF36F8FBFF309
:1057A0004F8F00BFFEE750230193019B502B2DD15B
:1057B000019B069E012384F84630002908BF22463B
:1057C0002260C4E90F01FFF74FFC2068D4E90F12F3
:1057D000002502FB0103013901FB0201A563C4E9B5
:1057E0000103FF20E16084F8440084F8450004F1DF
:1057F0001000FFF7F3FB04F12400FFF7EFFBFFF7C6
:1058000057FC204684F84C6002B070BD4FF0500049
:1058100080F31188BFF36F8FBFF34F8FFEE7000057
:105820002DE9F04F83B00292B8B11D460E460446F2
:10583000E9B1022D03D1E06B012840F0A68000F011
:1058400003FC00BB0298F0B14FF0500080F31188C8
:10585000BFF36F8FBFF34F8FFEE74FF0500080F321
:105860001188BFF36F8FBFF34F8F00BFFEE7206C2F
:105870000028DED04FF0500080F31188BFF36F8F07
:10588000BFF34F8FFEE7FFF7EFFBA06B022D5ED05B
:10589000E16B88425BD304F1100801206F460DF1E3
:1058A000080900BF0299002900F08280C00702D0D9
:1058B0003846FFF757FDFFF7FBFBFFF7F7FDFFF754
:1058C000D3FB94F84400FF2804BF002084F8440070
:1058D00094F84500FF2804BF002084F84500FFF736
:1058E000E7FB3846494600F085FA002863D1FFF708
:1058F000BBFBD4F838A0D4F83CB0FFF7D9FBDA45AD
:1059000016D102994046FFF743FD2046FEF780F985
:1059100000F0FEFC88B94EF60450CEF200004FF0C5
:1059200080510160BFF34F8FBFF36F8F05E000BF61
:105930002046FEF76DF900F0EBFCFFF795FBA06B3E
:10594000022D04D0E16B88424FF00000AAD2A76B71
:10595000226C22B3C5B3E0683146FAF782FEE168F3
:10596000206C2268091A9142E16003D2A16840428A
:105970000844E060A81EB0FA80F040093946002FC4
:1059800018BF012108403F1A2BE04FF0500080F370
:105990001188BFF36F8FBFF34F8F00BFFEE7206802
:1059A0000025F8B9A06800F021FCA560054619E0C3
:1059B000FFF77EFB04E02046FEF72AF900F0A8FC82
:1059C000002003B0BDE8F08F60683146FAF749FE69
:1059D000216CD4E9010208449042606001D3206840
:1059E00060600025781CA06354F8240F78B120462D
:1059F00000F046FCB8B14EF60450CEF200004FF075
:105A000080510160BFF34F8FBFF36F8F0BE055B133
:105A10004EF60450CEF200004FF080510160BFF30B
:105A20004F8FBFF36F8FFFF743FB012003B0BDE83B
:105A3000F08F00002DE9F04700B31E4614460546DE
:105A40000F4621B3022E02D1E86B01284FD1FFF798
:105A5000CBFBEFF311884FF0500080F31188BFF3B8
:105A60006F8FBFF34F8FA86B022E1CD0E96B88425B
:105A700019D3002088F31188BDE8F0874FF050005B
:105A800080F31188BFF36F8FBFF34F8FFEE7286C51
:105A90000028D7D04FF0500080F31188BFF36F8FEC
:105AA000BFF34F8FFEE795F84590A86BD5F838A067
:105AB0002A6C32B36EB3E8683946FAF7D2FDE9686A
:105AC000286C2A68091A9142E96003D2A968404209
:105AD0000844E860B01EB0FA80F040095146BAF1BF
